:204000006E00F8016E000600A0004800A0000C003C0000000000BE004800BE000C00D20053
:20402000F801D2000C003C0000000000C8004800C8000C00DC00F801DC000C003C00000090
:204040000000B4003402B4000C003C00000000000000000000000000C80005006400000049
:204060000000000000000000050002000100000000000100500018011400000004000100B5
:204080009A84FE08FF08AF80EF00FF04DF01FD20DF189F087F98FF02FF02FD10FF0DFF0206
:2040A000BF10BF80F706E700F500EF00FE44FF40FFC0FFC0FF04FF01FB00FC003F01FB40B6
:2040C000E701FB80FF22F710FF807A11FF82DF05FF50F700D720FF04FFA8DF46FF00FF01DB
:2040E000F920FF00F705FF0CBEA0FF00FF00FE20FFA1FF04F700FF06BF007F0C000000003E
:2041000000000000000000000000000000000000000000000000000000000000000000009F
:2041200000000000000000000000000000000000000000000000000000000000000000007F
:2041400000000000000000000000000000000000000000000000000000000000000000005F
:2041600000000000000000000000000000000000000000000000000000000000000000003F
:2041800000000000000000000000000000000000000000000000000000000000000000001F
:2041A0000000000000000000000000000000000000000000000000000000000000000000FF
:2041C0000000000000000000000000000000000000000000000000000000000000000000DF
:2041E0000000000000000000000000000000000000000000000000000000000000000000BF
:2042000000000000000000000000000000000000000000000000000000000000000000009E
:2042200000000000000000000000000000000000000000000000000000000000000000007E
:2042400000000000000000000000000000000000000000000000000000000000000000005E
:2042600000000000000000000000000000000000000000000000000000000000000000003E
:00000001FF
